:0400000002001132B7
:03000B0002006D83
:03006A0002000E83
:03000E0002027477
:10006D00C0E0C007C006C0D075D000AE08AF09749F
:10007D00012EF508E43FF509AE0A7F00C3E5089EA1
:10008D00E5099F4007E4F508F509F50AD0D0D0063B
:10009D00D007D0E0327FFAEF14FF70FB227591FF8D
:1000AD0075920075B1FB75B20022AF827E007D00A6
:1000BD00E51BFC30E010AB1A8BF005F074018002EB
:1000CD0025E0D5F0FBFEEC30E110AC1A8CF005F01C
:1000DD007401800225E0D5F0FBFDBF01028005BF54
:1000ED00031F800FEEF4FF55924EF592EF55914D93
:1000FD00F59122EEF4FF55B24EF5B2EF55B14DF537
:10010D00B1227590FF75B0FF7F007EFE7D018F17C8
:10011D007B0074015FF518751900EF240BF97A0057
:10012D0087048E908B1A751B01758201C007C0065E
:10013D00C005C004C003C002C0011200B7D001D079
:10014D0002D003D004D005D006D007ED5C6050EA94
:10015D0090036293F51A751B01758203C007C006E3
:10016D00C005C003C002C0011200B7D001D002D03B
:10017D0003D005D006D007E51845196007EA9003AE
:10018D006793F5B0C007C006C005C003C002C0012B
:10019D001200A2D001D002D003D005D006D0077531
:1001AD00B0FF7590FFC007C006C005C003C002C0F8
:1001BD00011200AAD001D002D003D005D006D0077D
:1001CD008D04EC2CFD0ABA0500500302012D7D01B2
:1001DD00EF0404FF8E04EC2CFE0BBB060050030253
:1001ED00011F7EFF7F01051774FE251740030201D5
:1001FD001D22AE82AF8375C78175C5018EC48FC3B5
:10020D0075C65A75C6A500AFC2C007120220D00729
:10021D008F822275C70075C50075C60075C38075C0
:10022D00C4002285821A85831B90000C120341E5C0
:10023D00828583F02402FEE435F0FF7D00ED240B72
:10024D00F98E828F83C007C006C005C0011201FF61
:10025D00E582D001D005D006D007F70EBE00010F04
:10026D000DBD0C0040D7221200AA758903758AE0D6
:10027D00758CB1D28CD2A9D2AF7F04900000C0078B
:10028D001201FFAE82900001C0061201FFAD82D0B7
:10029D0006D0078E047E008D03E42CFDEB3EFE8F11
:1002AD00035303077C00EB246CF582EC3403F583D8
:1002BD00E493F50A7B007C00C3EB9DEC9E50BC8B58
:1002CD00828C83C007C006C005C004C00312023073
:1002DD00D003D004D005D006D0078F02E50A6035D3
:1002ED00C006C005C004C003C00212010FD002D069
:1002FD0003D004D005D00620B2E20A8A00530007CD
:10030D007900E8246CF582E93403F583E493F50A6A
:10031D0030B2FD80C78A078A015301077A00E924AC
:10032D006CF582EA3403F583E493F50A0BBB000107
:04033D000C0202C5E7
:100362000001030607FEFDF7BF7F50463C32281E00
:02037200140A6B
:06004000E478FFF6D8FD94
:10001E007900E94400601B7A00900374780175A0A2
:10002E0000E493F2A308B8000205A0D9F4DAF27541
:02003E00A0FF21
:10034100E582851AF0A4C582C0F0851BF0A4D0F027
:0D03510025F0C583851AF0A42583F58322CD
:100046007800E84400600A790175A000E4F309D855
:10005600FC7800E84400600C7900900001E4F0A30D
:04006600D8FCD9FAEF
:0D00110075811B12035EE582600302000E84
:04035E007582002282
:00000001FF
