:020000005001AD
:0C000200010000000000000000000000F1
:0C000E00020000000000000000000000E4
:0C001A00040000000000000000000000D6
:0C002600080000000000000000000000C6
:0C003200100000000000000000000000B2
:0C003E00000100000000000000000000B5
:0C004A00000200000000000000000000A8
:0C0056000004000000000000000000009A
:0C0062000008000000000000000000008A
:0C006E0000100000000000000000000076
:0C007A0000000100000000000000000079
:0C0086000000020000000000000000006C
:0C0092000000040000000000000000005E
:0C009E000000080000000000000000004E
:0C00AA000000100000000000000000003A
:0C00B6000000000100000000000000003D
:0C00C20000000002000000000000000030
:0C00CE0000000004000000000000000022
:0C00DA0000000008000000000000000012
:0C00E600000000100000000000000000FE
:0C00F20000000000010000000000000001
:0C00FE00000000000200000000000000F4
:0C010A00000000000400000000000000E5
:0C011600000000000800000000000000D5
:0C012200000000001000000000000000C1
:0C012E00000000000001000000000000C4
:0C013A00000000000002000000000000B7
:0C014600000000000004000000000000A9
:0C01520000000000000800000000000099
:0C015E0000000000001000000000000085
:0C016A0000000000000001000000000088
:0C0176000000000000000200000000007B
:0C0182000000000000000400000000006D
:0C018E000000000000000800000000005D
:0C019A0000000000000010000000000049
:0C01A6000000000000000001000000004C
:0C01B2000000000000000002000000003F
:0C01BE0000000000000000040000000031
:0C01CA0000000000000000080000000021
:0C01D6000000000000000010000000000D
:0C01E20000000000000000000100000010
:0C01EE0000000000000000000200000003
:0C01FA00000000000000000004000000F5
:0C020600000000000000000008000000E4
:0C021200000000000000000010000000D0
:0C021E00000000000000000000010000D3
:0C022A00000000000000000000020000C6
:0C023600000000000000000000040000B8
:0C024200000000000000000000080000A8
:0C024E0000000000000000000010000094
:0C025A0000000000000000000000010097
:0C0266000000000000000000000002008A
:0C0272000000000000000000000004007C
:0C027E000000000000000000000008006C
:0C028A0000000000000000000000100058
:0C0296000000000000000000000000015B
:0C02A2000000000000000000000000024E
:0C02AE001F070C0C161F171918101F0357
:0C02BA000018131209000806050F0000D0
:0C02C60000000001000000000200000029
:0C02D20000000001001C00000200000001
:0C02DE001F0300000000000000001F03D0
:0C02EA00001C070000000000101F0000B6
:0C02F60000001807000000100F000000BE
:0C030200000000180300000F00000000C5
:0C030E00000000001C001C0000000000AB
:0C031A00000000000003030000000000D1
:0C032600000000000014000000000000B7
:0C033200000000000008000000000000B7
:0C033E00000000000004000000001F038D
:0C034A000000000000030000101F000075
:0C035600000000001C0000100F00000060
:0C036200000000180300000F0000000065
:0C036E000000180700001C000000000048
:0C037A00001C0700000003000000000051
:0C0386001F030000001000000000000039
:0C039200001C0700000003000000000039
:0C039E000000180700001C000000000018
:0C03AA00000000180300000F000000001D
:0C03B600000000001C0000100F00000000
:0C03C2000000000000030000101F0000FD
:0C03CE00000000000004000000001F03FD
:0C03DA001F1F1F1F1F0700000000000075
:0C03E6000000000000101F1F1F1F1F035D
:0C03F200010000000000000000000000FE
:0C03FE00020000000000000000000000F1
:0C040A00040000000000000000000000E2
:0C041600080000000000000000000000D2
:0C042200100000000000000000000000BE
:0C042E00000100000000000000000000C1
:0C043A00000200000000000000000000B4
:0C044600000400000000000000000000A6
:0C04520000080000000000000000000096
:0C045E0000100000000000000000000082
:0C046A0000000100000000000000000085
:0C04760000000200000000000000000078
:0C0482000000040000000000000000006A
:0C048E000000080000000000000000005A
:0C049A0000001000000000000000000046
:0C04A60000000001000000000000000049
:0C04B2000000000200000000000000003C
:0C04BE000000000400000000000000002E
:0C04CA000000000800000000000000001E
:0C04D6000000001000000000000000000A
:0C04E2000000000001000000000000000D
:0C04EE0000000000020000000000000000
:0C04FA00000000000400000000000000F2
:0C050600000000000800000000000000E1
:0C051200000000001000000000000000CD
:0C051E00000000000001000000000000D0
:0C052A00000000000002000000000000C3
:0C053600000000000004000000000000B5
:0C054200000000000008000000000000A5
:0C054E0000000000001000000000000091
:0C055A0000000000000001000000000094
:0C05660000000000000002000000000087
:0C05720000000000000004000000000079
:0C057E0000000000000008000000000069
:0C058A0000000000000010000000000055
:0C05960000000000000000010000000058
:0C05A2000000000000000002000000004B
:0C05AE000000000000000004000000003D
:0C05BA000000000000000008000000002D
:0C05C60000000000000000100000000019
:0C05D2000000000000000000010000001C
:0C05DE000000000000000000020000000F
:0C05EA0000000000000000000400000001
:0C05F600000000000000000008000000F1
:0C060200000000000000000010000000DC
:0C060E00000000000000000000010000DF
:0C061A00000000000000000000020000D2
:0C062600000000000000000000040000C4
:0C063200000000000000000000080000B4
:0C063E00000000000000000000100000A0
:0C064A00000000000000000000000100A3
:0C06560000000000000000000000020096
:0C06620000000000000000000000040088
:0C066E0000000000000000000000080078
:0C067A0000000000000000000000100064
:0C06860000000000000000000000000167
:0C0692000000000000000000000000025A
:0C069E001F070C0C161F171918101F0363
:0C06AA000018131209000806050F0000DC
:0C06B60000000001000000000200000035
:0C06C20000000001001C0000020000000D
:0C06CE001F0300000000000000001F03DC
:0C06DA00001C070000000000101F0000C2
:0C06E60000001807000000100F000000CA
:0C06F200000000180300000F00000000D2
:0C06FE00000000001C001C0000000000B8
:0C070A00000000000003030000000000DD
:0C071600000000000014000000000000C3
:0C072200000000000008000000000000C3
:0C072E00000000000004000000001F0399
:0C073A000000000000030000101F000081
:0C074600000000001C0000100F0000006C
:0C075200000000180300000F0000000071
:0C075E000000180700001C000000000054
:0C076A00001C070000000300000000005D
:0C0776001F030000001000000000000045
:0C078200001C0700000003000000000045
:0C078E000000180700001C000000000024
:0C079A00000000180300000F0000000029
:0C07A600000000001C0000100F0000000C
:0C07B2000000000000030000101F000009
:0C07BE00000000000004000000001F0309
:0C07CA001F1F1F1F1F0700000000000081
:0C07D6000000000000101F1F1F1F1F0369
:0C07E2000100000000000000000000000A
:0C07EE00020000000000000000000000FD
:0C07FA00040000000000000000000000EF
:0C080600080000000000000000000000DE
:0C081200100000000000000000000000CA
:0C081E00000100000000000000000000CD
:0C082A00000200000000000000000000C0
:0C083600000400000000000000000000B2
:0C084200000800000000000000000000A2
:0C084E000010000000000000000000008E
:0C085A0000000100000000000000000091
:0C08660000000200000000000000000084
:0C08720000000400000000000000000076
:0C087E0000000800000000000000000066
:0C088A0000001000000000000000000052
:0C08960000000001000000000000000055
:0C08A20000000002000000000000000048
:0C08AE000000000400000000000000003A
:0C08BA000000000800000000000000002A
:0C08C60000000010000000000000000016
:0C08D20000000000010000000000000019
:0C08DE000000000002000000000000000C
:0C08EA00000000000400000000000000FE
:0C08F600000000000800000000000000EE
:0C090200000000001000000000000000D9
:0C090E00000000000001000000000000DC
:0C091A00000000000002000000000000CF
:0C092600000000000004000000000000C1
:0C093200000000000008000000000000B1
:0C093E000000000000100000000000009D
:0C094A00000000000000010000000000A0
:0C09560000000000000002000000000093
:0C09620000000000000004000000000085
:0C096E0000000000000008000000000075
:0C097A0000000000000010000000000061
:0C09860000000000000000010000000064
:0C09920000000000000000020000000057
:0C099E0000000000000000040000000049
:0C09AA0000000000000000080000000039
:0C09B60000000000000000100000000025
:0C09C20000000000000000000100000028
:0C09CE000000000000000000020000001B
:0C09DA000000000000000000040000000D
:0C09E600000000000000000008000000FD
:0C09F200000000000000000010000000E9
:0C09FE00000000000000000000010000EC
:0C0A0A00000000000000000000020000DE
:0C0A1600000000000000000000040000D0
:0C0A2200000000000000000000080000C0
:0C0A2E00000000000000000000100000AC
:0C0A3A00000000000000000000000100AF
:0C0A4600000000000000000000000200A2
:0C0A520000000000000000000000040094
:0C0A5E0000000000000000000000080084
:0C0A6A0000000000000000000000100070
:0C0A760000000000000000000000000173
:0C0A820000000000000000000000000266
:0C0A8E001F070C0C161F171918101F036F
:0C0A9A000018131209000806050F0000E8
:0C0AA60000000001000000000200000041
:0C0AB20000000001001C00000200000019
:0C0ABE001F0300000000000000001F03E8
:0C0ACA00001C070000000000101F0000CE
:0C0AD60000001807000000100F000000D6
:0C0AE200000000180300000F00000000DE
:0C0AEE00000000001C001C0000000000C4
:0C0AFA00000000000003030000000000EA
:0C0B0600000000000014000000000000CF
:0C0B1200000000000008000000000000CF
:0C0B1E00000000000004000000001F03A5
:0C0B2A000000000000030000101F00008D
:0C0B3600000000001C0000100F00000078
:0C0B4200000000180300000F000000007D
:0C0B4E000000180700001C000000000060
:0C0B5A00001C0700000003000000000069
:0C0B66001F030000001000000000000051
:0C0B7200001C0700000003000000000051
:0C0B7E000000180700001C000000000030
:0C0B8A00000000180300000F0000000035
:0C0B9600000000001C0000100F00000018
:0C0BA2000000000000030000101F000015
:0C0BAE00000000000004000000001F0315
:0C0BBA001F1F1F1F1F070000000000008D
:0C0BC6000000000000101F1F1F1F1F0375
:0C0BD2001E1F1F1F1F1F1F1F1F1F1F03C0
:0C0BDE001D1F1F1F1F1F1F1F1F1F1F03B5
:0C0BEA001B1F1F1F1F1F1F1F1F1F1F03AB
:0C0BF600171F1F1F1F1F1F1F1F1F1F03A3
:0C0C02000F1F1F1F1F1F1F1F1F1F1F039E
:0C0C0E001F1E1F1F1F1F1F1F1F1F1F0383
:0C0C1A001F1D1F1F1F1F1F1F1F1F1F0378
:0C0C26001F1B1F1F1F1F1F1F1F1F1F036E
:0C0C32001F171F1F1F1F1F1F1F1F1F0366
:0C0C3E001F0F1F1F1F1F1F1F1F1F1F0362
:0C0C4A001F1F1E1F1F1F1F1F1F1F1F0347
:0C0C56001F1F1D1F1F1F1F1F1F1F1F033C
:0C0C62001F1F1B1F1F1F1F1F1F1F1F0332
:0C0C6E001F1F171F1F1F1F1F1F1F1F032A
:0C0C7A001F1F0F1F1F1F1F1F1F1F1F0326
:0C0C86001F1F1F1E1F1F1F1F1F1F1F030B
:0C0C92001F1F1F1D1F1F1F1F1F1F1F0300
:0C0C9E001F1F1F1B1F1F1F1F1F1F1F03F6
:0C0CAA001F1F1F171F1F1F1F1F1F1F03EE
:0C0CB6001F1F1F0F1F1F1F1F1F1F1F03EA
:0C0CC2001F1F1F1F1E1F1F1F1F1F1F03CF
:0C0CCE001F1F1F1F1D1F1F1F1F1F1F03C4
:0C0CDA001F1F1F1F1B1F1F1F1F1F1F03BA
:0C0CE6001F1F1F1F171F1F1F1F1F1F03B2
:0C0CF2001F1F1F1F0F1F1F1F1F1F1F03AE
:0C0CFE001F1F1F1F1F1E1F1F1F1F1F0393
:0C0D0A001F1F1F1F1F1D1F1F1F1F1F0387
:0C0D1600000000000004000000000000CD
:0C0D2200000000000008000000000000BD
:0C0D2E00000000000010000000000000A9
:0C0D3A001F1F1F1F1F1F1E1F1F1F1F0356
:0C0D46001F1F1F1F1F1F1D1F1F1F1F034B
:0C0D52001F1F1F1F1F1F1B1F1F1F1F0341
:0C0D5E001F1F1F1F1F1F171F1F1F1F0339
:0C0D6A001F1F1F1F1F1F0F1F1F1F1F0335
:0C0D76001F1F1F1F1F1F1F1E1F1F1F031A
:0C0D82001F1F1F1F1F1F1F1D1F1F1F030F
:0C0D8E001F1F1F1F1F1F1F1B1F1F1F0305
:0C0D9A001F1F1F1F1F1F1F171F1F1F03FD
:0C0DA6001F1F1F1F1F1F1F0F1F1F1F03F9
:0C0DB2001F1F1F1F1F1F1F1F1E1F1F03DE
:0C0DBE001F1F1F1F1F1F1F1F1D1F1F03D3
:0C0DCA001F1F1F1F1F1F1F1F1B1F1F03C9
:0C0DD6001F1F1F1F1F1F1F1F171F1F03C1
:0C0DE2001F1F1F1F1F1F1F1F0F1F1F03BD
:0C0DEE001F1F1F1F1F1F1F1F1F1E1F03A2
:0C0DFA001F1F1F1F1F1F1F1F1F1D1F0397
:0C0E06001F1F1F1F1F1F1F1F1F1B1F038C
:0C0E12001F1F1F1F1F1F1F1F1F171F0384
:0C0E1E001F1F1F1F1F1F1F1F1F0F1F0380
:0C0E2A001F1F1F1F1F1F1F1F1F1F1E0365
:0C0E36001F1F1F1F1F1F1F1F1F1F1D035A
:0C0E42001F1F1F1F1F1F1F1F1F1F1B0350
:0C0E4E001F1F1F1F1F1F1F1F1F1F170348
:0C0E5A001F1F1F1F1F1F1F1F1F1F0F0344
:0C0E66001F1F1F1F1F1F1F1F1F1F1F0229
:0C0E72001F1F1F1F1F1F1F1F1F1F1F011E
:0C0E7E000018131309000806070F0000FD
:0C0E8A001F070C0D161F17191A101F036C
:0C0E96001F1F1F1E1F1F1F1F1D1F1F03FB
:0C0EA2001F1F1F1E1F031F1F1D1F1F030B
:0C0EAE00001C1F1F1F1F1F1F1F1F000024
:0C0EBA001F03181F1F1F1F1F0F001F0326
:0C0EC6001F1F07181F1F1F0F101F1F0306
:0C0ED2001F1F1F071C1F1F101F1F1F03E6
:0C0EDE001F1F1F1F031F031F1F1F1F03E8
:0C0EEA001F1F1F1F1F1C1C1F1F1F1F03AA
:0C0EF6001F1F1F1F1F0B1F1F1F1F1F03AC
:0C0F02001F1F1F1F1F171F1F1F1F1F0393
:0C0F0E001F1F1F1F1F1B1F1F1F1F0000A5
:0C0F1A001F1F1F1F1F1C1F1F0F001F03A5
:0C0F26001F1F1F1F031F1F0F101F1F03A2
:0C0F32001F1F1F071C1F1F101F1F1F0385
:0C0F3E001F1F07181F1F031F1F1F1F038A
:0C0F4A001F03181F1F1F1C1F1F1F1F0369
:0C0F5600001C1F1F1F0F1F1F1F1F1F0369
:0C0F62001F03181F1F1F1C1F1F1F1F0351
:0C0F6E001F1F07181F1F031F1F1F1F035A
:0C0F7A001F1F1F071C1F1F101F1F1F033D
:0C0F86001F1F1F1F031F1F0F101F1F0342
:0C0F92001F1F1F1F1F1C1F1F0F001F032D
:0C0F9E001F1F1F1F1F1B1F1F1F1F000015
:0C0FAA000000000000181F1F1F1F1F0385
:0C0FB6001F1F1F1F1F0F00000000000085
:00000001FF
